:100000000C9430000C94BF020C94C6010C945A045A
:100010000C945A040C945A040C945A040C945A04E8
:100020000C943D010C945A040C945A040C945A04F8
:100030000C945A040C945A040C945A040C945A04C8
:100040000C945A040C945A040C945A040C945A04B8
:100050000C945A0400600087800087009F0008C24B
:1000600011241FBECFE5D4E0DEBFCDBFE4E5F0E054
:1000700040E017C0B591A59135912591059107FDF7
:100080000CC095918591EF01F92FE82F05900D9205
:10009000A217B307D9F7FE0104C01D92A217B30738
:1000A000E1F7E036F40731F70E944D040C94420466
:0400B000F894FFCFF2
:0B00B4003F065B4F666D7D077F6F40CD
:1000C00080918400811105C080918300882309F408
:1000D000D3C01092860010928500C6C081E090E0E7
:1000E00002C0880F991F2A95E2F7809585BB8FE99A
:1000F0009FE00197F1F700C0000083B3807F90E09C
:100100009093820080938100803F910509F4A3C001
:100110001092700010926F0092C0A9014C5F5F4F67
:1001200081E090E002C0880F991F4A95E2F7809520
:10013000807F9927909363008093620040918100B3
:10014000509182008417950709F070C040917300A8
:10015000509174008091850090918600FC01EE0F13
:10016000FF1FE80FF91FE20FF31FEE0FFF1FE95704
:10017000FF4F80819181FA01EE0FFF1FEB58FF4F77
:1001800091838083452BE9F4209183002223C9F0D9
:10019000E5E7F0E02AE030E03383228335832483EF
:1001A00037832683318720873387228720813181D7
:1001B0002A30310531F42FEF3FEF30937400209354
:1001C00073008A309105A9F4209173003091740076
:1001D0001216130674F421503109309374002093E1
:1001E0007300220F331FF901EB58FF4F9183808377
:1001F0001DC080917300909174008530910589F441
:1002000080918400882321F00E941B0210928400B8
:1002100080918300882351F00E946D021092830028
:1002200005C00196909374008093730080916F00D5
:100230009091700001969093700080936F002091D0
:100240006F0030917000233031050CF466CF83B31A
:10025000807F803FE1F78091850090918600019634
:1002600090938600809385002091850030918600D0
:0A027000243031050CF432CF08955C
:10027A001F920F920FB60F9211242F933F934F9311
:10028A005F936F937F938F939F93AF93BF93EF93F4
:10029A00FF9385E88DBD8DEE8CBD80918400811120
:1002AA005FC0809167009091680001966CE370E0EE
:1002BA000E94FB039C019093680080936700892B3E
:1002CA00E1F480916B0090916C0001966CE370E010
:1002DA000E94FB0390936C0080936B00892B69F456
:1002EA0080916D0090916E00019668E170E00E9425
:1002FA00FB0390936E0080936D00809183008111BF
:10030A000BC060916B0070916C00A90180916D0027
:10031A0090916E000E94B90320916D0030916E0099
:10032A00809171009091720028173907C9F42091C1
:10033A006B0030916C008091690090916A002817D7
:10034A00390771F42091670030916800809160004C
:10035A00909161002817390719F482B3806182BB32
:10036A00FF91EF91BF91AF919F918F917F916F9183
:10037A005F914F913F912F910F900FBE0F901F9059
:02038A001895C4
:10038C001F920F920FB60F9211242F933F934F93FE
:10039C005F936F937F938F939F93AF93BF93EF93E1
:1003AC00FF938091830081111FC081E080938300B3
:1003BC0010928400109274001092730040916000AF
:1003CC00509161006091690070916A008091710098
:1003DC00909172000E94B903849B16C082B38F7EE9
:1003EC0082BB1092830010C0109283004091670072
:1003FC005091680060916B0070916C0080916D0061
:10040C0090916E000E94B903FF91EF91BF91AF9153
:10041C009F918F917F916F915F914F913F912F9110
:0A042C000F900FBE0F901F9018955F
:10043600CF93DF93C5E7D0E088819981BC01660F31
:10044600771F880F991F880F991F880F991F860F8E
:10045600971F6A817B81680F791F87E190E00E9470
:10046600540490936E0080936D008C819D81BC0135
:10047600660F771F880F991F880F991F880F991F7E
:10048600860F971F6E817F81680F791F8BE390E03F
:100496000E94540490936C0080936B008885998524
:1004A600BC01660F771F880F991F880F991F880F49
:1004B600991F860F971F6A857B85680F791F8BE3C7
:1004C60090E00E9454049093680080936700DF9147
:0404D600CF91089525
:1004DA00CF93DF93C5E7D0E088819981BC01660F8D
:1004EA00771F880F991F880F991F880F991F860FEA
:1004FA00971F6A817B81680F791F87E190E00E94CC
:10050A00540490937200809371008C819D81BC0188
:10051A00660F771F880F991F880F991F880F991FD9
:10052A00860F971F6E817F81680F791F8BE390E09A
:10053A000E94540490936A00809369008885998583
:10054A00BC01660F771F880F991F880F991F880FA4
:10055A00991F860F971F6A857B85680F791F8BE322
:10056A0090E00E9454049093610080936000DF91B0
:04057A00CF91089580
:10057E001F920F920FB60F9211242F933F934F930A
:10058E005F936F937F938F939F93AF93BF93EF93ED
:10059E00FF938091840081111AC081E080938400C2
:1005AE00109283001092740010927300E5E7F0E051
:1005BE008AE090E091838083938382839583848302
:1005CE0097838683918780879387828710C0109246
:1005DE008400409167005091680060916B007091AB
:1005EE006C0080916D0090916E000E94B903FF9196
:1005FE00EF91BF91AF919F918F917F916F915F918D
:10060E004F913F912F910F900FBE0F901F90189505
:10061E0081E090E090936500809364001DC0FC0122
:10062E003197EE0FFF1FEB58FF4F20813181032EC4
:10063E00000C440B2C543F4F4F4FF901649147FD72
:10064E0060810E94DF0380916400909165000196A5
:10065E009093650080936400809164009091650092
:08066E0087309105E4F20895C4
:100676009C0191B39B7F91BB92B3946092BB9BB755
:1006860090649BBF9AB790649ABF2230310579F087
:1006960024F42130310541F008952330310559F015
:1006A6002430310561F0089585B785BF089585B773
:1006B600816085BF089585B7826085BF089585B737
:0606C600836085BF08956A
:1006CC009C0191B3977F91BB92B3986092BB9BB7FF
:1006DC0090689BBF9AB790689ABF2230310579F029
:1006EC0024F42130310541F008952330310559F0BF
:1006FC002430310561F0089585B785BF089585B71D
:10070C00846085BF089585B7886085BF089585B7D7
:06071C008C6085BF08950A
:1007220010926E0010926D0010926C0010926B008D
:10073200109268001092670010927200109271007D
:1007420010926A001092690010926100109260008B
:1007520040E050E060E070E080E090E00E94B90389
:100762000E9434040E94230481B3806181BB0895F6
:100772000F931F93CF93DF938B01EA012AE030E0BE
:10078200B9010E94FB03E5E7F0E071836083938384
:100792008283C801B9010E94FB0375836483978336
:1007A2008683CE01B9010E94FB037187608793871C
:0C07B2008287DF91CF911F910F91089575
:1007BE00AC014150510921E030E002C0220F331F3D
:1007CE004A95E2F7209528BB6BBB80FD03C08BB327
:1007DE0080688BBB8FEC97E00197F1F700C00000AB
:0807EE008FEF88BB1BBA0895D0
:1007F60097FB072E16F4009407D077FD09D00E94C8
:100806000F0407FC05D03EF4909581959F4F0895FF
:08081600709561957F4F089574
:10081E00AA1BBB1B51E107C0AA1FBB1FA617B70718
:10082E0010F0A61BB70B881F991F5A95A9F7809534
:08083E009095BC01CD01089565
:100846008FE084BB8FEF85BB84E090E00E943B0382
:1008560084E090E00E946603109284001092830068
:020866000895F3
:1008680084E08EBD89BF85E88DBD8DEE8CBD789402
:0C0878008FEF8ABB87BB1BBA88BB0895BA
:10088400EC010E945F040E945E04CE010E94600499
:06089400CE010E945C048D
:0E089A000E9491030E940F030E946000FBCF9A
:0C08A8006817790714F4862F972F089525
:0408B4000C940000A0
:0408B8000E94580042
:0208BC0008959D
:0208BE0008959B
:0208C000089599
:1008C2000100020003000400050006000700080002
:0808D20009000A0000000A0001
:00000001FF
